:020000040800F2
:10000000000002208DA80008B1A70008B3A70008CF
:10001000B5A70008B7A70008B9A7000800000000AE
:10002000000000000000000000000000C11F0008E8
:10003000BBA700080000000051200008B520000800
:10004000DDA80008DDA80008DDA80008DDA800087C
:10005000DDA80008DDA80008DDA80008DDA800086C
:10006000DDA80008DDA80008DDA80008DDA800085C
:10007000DDA80008DDA80008DDA80008DDA800084C
:10008000DDA80008DDA80008DDA80008DDA800083C
:10009000DDA80008DDA80008DDA80008DDA800082C
:1000A000DDA80008DDA80008DDA80008DDA800081C
:1000B000BDA70008C9A70008D5A70008DDA800084B
:1000C000DDA80008DDA80008DDA80008DDA80008FC
:1000D000DDA80008DDA80008DDA80008DDA80008EC
:1000E000DDA80008DDA80008DDA80008DDA80008DC
:1000F000DDA80008DDA80008DDA80008DDA80008CC
:10010000DDA80008DDA80008DDA80008DDA80008BB
:10011000DDA80008DDA80008DDA80008DDA80008AB
:10012000DDA80008DDA80008DDA80008DDA800089B
:10013000DDA80008E1A70008DDA80008DDA8000888
:10014000DDA80008DDA80008DDA80008DDA800087B
:10015000DDA80008DDA80008DDA80008DDA800086B
:10016000DDA80008DDA80008DDA80008DDA800085B
:10017000DDA80008DDA80008DDA8000800000000D8
:08018000DDA80008DDA800085D
:1001900010B5054C237833B9044B13B10448AFF3C1
:1001A00000800123237010BD7C00002000000000AF
:1001B000E8BA000808B5034B1BB103490348AFF385
:1001C000008008BD0000000080000020E8BA0008A0
:1001D00010F8012B11F8013B012A28BF9A42F7D0F1
:1001E000D01A7047034613F8012B002AFBD1181AC6
:1001F000013870470000000000000000000000000F
:1002000001F0FF01102A2BDB10F0070F08D010F8C7
:10021000013B013A8B422DD010F0070F42B3F6D1CB
:10022000F0B441EA012141EA014122F007047FF0E4
:1002300000070023F0E80256083C85EA010586EA3B
:10024000010685FA47F5A3FA87F586FA47F6A5FA77
:1002500087F68EB9EED1F0BC01F0FF0102F0070283
:1002600032B110F8013B013A83EA010313B1F8D12E
:100270000020704701387047002D06BF354603380F
:10028000073815F0010F07D1013015F4807F02BF48
:10029000013015F4C03F0130F0BC0138704700BF99
:1002A00053B94AB9002908BF00281CBF4FF0FF31DD
:1002B0004FF0FF3000F07AB9ADF1080C6DE904CED3
:1002C00000F006F8DDF804E0DDE9022304B0704731
:1002D0002DE9F0478C460D460446089E002B51D16F
:1002E0008A4217466DD9B2FA82FEBEF1000F0BD0DA
:1002F000CEF1200C01FA0EF520FA0CFC02FA0EF7F2
:100300004CEA050C00FA0EF44FEA174A250CBCFB28
:10031000FAF81FFA87F90AFB18CC45EA0C4508FBE6
:1003200009F3AB420AD9ED1908F1FF3280F02381BD
:10033000AB4240F22081A8F102083D44ED1AA4B27C
:10034000B5FBFAF00AFB105544EA054400FB09F935
:10035000A14509D9E41900F1FF3380F00A81A145D4
:1003600040F2078102383C44A4EB090440EA08400B
:100370000021002E61D024FA0EF400233460736053
:10038000BDE8F0878B4207D9002E54D0002186E8C3
:1003900021000846BDE8F087B3FA83F1002940F058
:1003A0008E80AB4202D3824200F2FA80841A65EB5F
:1003B00003050120AC46002E3FD086E81010BDE8B2
:1003C000F08712B90127B7FBF2F7B7FA87FEBEF143
:1003D000000F34D1EB1B3A0C1FFA87FC0121B3FB51
:1003E000F2F8250C02FB183345EA03450CFB08F331
:1003F000AB4207D9ED1908F1FF3002D2AB4200F24F
:10040000D1808046ED1AA3B2B5FBF2F002FB105585
:1004100043EA05440CFB00FCA44507D9E41900F1AC
:10042000FF3302D2A44500F2B8801846A4EB0C04B6
:1004300040EA08409DE731463046BDE8F087CEF1FE
:10044000200405FA0EF307FA0EF720FA04F83A0C26
:1004500025FA04F448EA0308B4FBF2F14FEA184520
:1004600002FB11441FFA87FC45EA044501FB0CF32B
:10047000AB4200FA0EF409D9ED1901F1FF3080F01A
:100480008A80AB4240F2878002393D44EB1A1FFA62
:1004900088F5B3FBF2F002FB103345EA034500FB9D
:1004A0000CF3AB4207D9ED1900F1FF386FD2AB4224
:1004B0006DD902383D44EB1A40EA01418FE7C1F1A2
:1004C000200722FA07F88B4005FA01F448EA0303F3
:1004D00020FA07FE4FEA134CFD404EEA040EB5FB2E
:1004E000FCF94FEA1E440CFB19551FFA83F844EA45
:1004F000054509FB08F4AC4202FA01F200FA01FAE0
:1005000008D9ED1809F1FF3043D2AC4241D9A9F125
:1005100002091D442D1B1FFA8EFEB5FBFCF00CFBDF
:1005200010554EEA054400FB08F8A04507D9E41829
:1005300000F1FF3529D2A04527D902381C4440EAF2
:100540000940A4EB0804A0FB02894C45C6464D4671
:1005500015D312D056B1BAEB0E0364EB050404FABE
:1005600007F7CB401F43CC40376074600021BDE8E3
:10057000F0871846F8E69046E0E6C245EAD2B8EBC6
:10058000020E69EB03050138E4E72846D7E7404649
:1005900091E78146BEE7014678E702383C4445E7EB
:1005A000084608E7A8F102083D442BE7704700BF62
:1005B00008B50B4B1A6842F400721A601A6842F4CC
:1005C00080621A601A6842F480721A60032000F098
:1005D0002FF800200AF0AEF80AF01EF8002008BD3F
:1005E000003C0240034A044B11681B780B44136023
:1005F000704700BFE455002000000020014B186840
:10060000704700BFE455002038B50446FFF7F6FFF9
:10061000631C1CBF054B1B78054618BFE418FFF789
:10062000EDFF401B8442FAD838BD00BF0000002017
:10063000074AD36823F4E0631B041B0C43F0BF6339
:10064000000243F4003300F4E0600343D3607047DA
:1006500000ED00E0174B30B5DC68C4F30224C4F1B0
:100660000703251D042B28BF0423062D4FF0010589
:1006700005FA03F303F1FF338CBF033C0024194058
:10068000A14005FA04F4013C2240002842EA01029C
:100690004FEA0212ADBF00F1604000F00F00064BC0
:1006A00000F56140B5BFD2B2D2B21A5480F800232F
:1006B00030BD00BF00ED00E014ED00E0002808DBD5
:1006C0004209012300F01F0003FA00F0014B43F838
:1006D0002200704700E100E082B0074B4FF4FA526D
:1006E0001B68B3FBF2F3019300BF019B5A1E0192FA
:1006F000002BF9D102B070471400002007B5002389
:10070000019341F2180103685A5842F480125A507A
:100710005B580193FFF7E0FF019A03685A5003B05A
:100720005DF804FB70B5044629B14FF40063C36063
:100730004FF480438360E3692268E0681568002B0A
:10074000A36843EA0003304843F4007300EA05005D
:100750000CBF4FF48061002103430B431360012061
:100760001568FFF751FF236840221D6001205A6081
:100770005D68FFF749FF23685D6000259D60DD60CF
:100780009A6922F0BE021204120C42F080029A61B1
:1007900001209E69FFF738FF236801209E61DD611B
:1007A000DD69FFF731FF2268184BD56141F218056A
:1007B000012051590B4043F0087343F00403535197
:1007C0005659FFF721FF2368114A5E5103F5805304
:1007D00001201A601D68FFF717FF226802F5805399
:1007E0001D60A369012B07D141F21C01535843F44A
:1007F000803343F0400353506369064A998811607F
:100800001A68054B1A6070BD0F8120FF233FDEF888
:100810008020C1024080024044800240F0B590F840
:100820004540012C4FF0020433D0012580F845509B
:1008300080F84440C16201F1200400254FF4801784
:1008400040F2F45E03F1FF3C9D420BD1026841F29D
:100850001003D150012380F84430002380F8453044
:100860001846F0BD0EFB052644F8186CC66944F81E
:10087000207C2EB954F8206C46F4400644F8206CD5
:1008800065452CBF0E46264644F8146C01352034CD
:10089000DAE72046F0BD2DE9F04190F84540012C03
:1008A0004FF0020430D0012580F8455080F84440D4
:1008B000816201F1200400254FF0004644F2F45714
:1008C00040F2F45E03F1FF3C9D420CD1026841F21C
:1008D0000C03D150012380F84430002380F84530C8
:1008E0001846BDE8F0810EFB052844F8188C6545D4
:1008F0002CBF8846A04644F8206C44F81C7C44F881
:10090000148C01352034DFE72046BDE8F08100007B
:1009100090F84530012BF0B54FF0020368D001226A
:1009200080F8452080F8443029B980F8442080F8C8
:1009300045101046F0BDC36A1C68002C06DA12236D
:1009400080F84430002380F84530F2E740F2F45458
:10095000A1422ED9B1FBF4F204FB12143CB30132D4
:10096000244C01F2F45104FB0211C1F30C010024E8
:1009700040F2F456571E1D6825F040551D601CB905
:100980001D6845F080551D60A74208BF1D685E6068
:1009900004BF45F000551D601D6808BF5960013453
:1009A00045F0004594421D60DB68E4D10DE0012A6A
:1009B000D6D11A6842F040521A601A68C1F30C018D
:1009C00042F0004259601A60DB68C36241F21402CF
:1009D00003689958490705D50421995041F204024A
:1009E00000219950012380F84430002380F84530DD
:1009F0001846F0BD0CFAFFFF90F84530012B30B5DA
:100A00004FF002033BD0012280F8452080F84430AB
:100A100005241146836A1A68002A01DB013C06D1CD
:100A20000123002280F8443080F8452027E01A682E
:100A3000DD6802F44072B2F5007F03D10363816385
:100A40008562E7E71A6812F4407F826B02D10132B7
:100A50008263F5E70132012A08BF036343631B6821
:100A60008263C3F30D43043BC363036B9B6803645E
:100A7000012380F844300023856280F84530184611
:100A800030BD7047704770B5026841F214060446E5
:100A9000955915F0400521D009F092F923684022BC
:100AA0009A51012384F84430002384F845302368A8
:100AB00041F214054FF480325A515B591B040CD596
:100AC0002046FFF7DFFF23684FF400425A5101230D
:100AD00084F84430002384F8453070BD9359DA0718
:100AE000E5D5FFF7CEFF22680123935184F8443007
:100AF00084F84550DBE7F8B590F84430822B054682
:100B0000164630D00268822380F844301369890188
:100B100001F4F86403F01C012143048AE402A4B246
:100B20000C4344F001041461FFF768FD074614F01C
:100B3000010007D12B685B699BB23360012385F804
:100B40004430F8BDFFF75AFDC01BB0F5803F07D316
:100B5000012385F84430002385F845300320F8BD93
:100B60002B681C69E3E70220F8BD90F84430422B63
:100B700070B505462ED0422380F8443003688C01BE
:100B8000186904F4F86444F0030400F01C002043E6
:100B90002C8AE402A4B2044392B25A611C61FFF7AA
:100BA0002DFD064614F0010003D1012385F84430E1
:100BB00070BDFFF723FD801BB0F5803F07D30123F5
:100BC00085F84430002385F84530032070BD2B683C
:100BD0001C69E7E7022070BDF7B5002300930446C7
:100BE000002800F0DE8090F8443003F0FF021BB9CB
:100BF00080F8452009F066F8002301936A4B5A6C8F
:100C000042F480425A645B6C03F480430193019B7D
:100C1000664B5A6822F400025A605A68216A0A43F5
:100C20005A60236803F580531A6842F001021A6083
:100C3000FFF7E4FC0546236803F580521268D007ED
:100C40001DD41D6900F056FC594B5A4A0344934287
:100C500025F01C0522D845F0080523684FF4004212
:100C60001D6100212046FFF780FF054668B3012182
:100C700020460125FFF756FD84F844500BE0FFF7AE
:100C8000BDFC401BB0F5FA7FD5D90325002384F8BD
:100C9000445084F84530284603B0F0BD464B474ADF
:100CA0000344934202D845F00C05D6E7444B454A2D
:100CB00003449342D1D9444B444A0344934294BFE2
:100CC00045F0040545F01005C7E7FF20FFF79CFC41
:100CD0006368002B53D0FFF791FC41F2883706463A
:100CE0006A4601212046FFF706FFFFF787FC801BBD
:100CF000B8420BD901212046FFF714FD012384F8E7
:100D00004430002384F845300325C4E7009B59078D
:100D1000E6D54FF4805200212046FFF726FF002839
:100D2000A5D1FFF76BFC41F2883706466A460121E0
:100D30002046FFF7E0FEFFF761FC801BB842D9D8E0
:100D4000009B9A06F2D56A461F212046FFF7D3FE84
:100D500000288CD1009B13F0100218BF4FF40062E2
:100D60005B074CBF00234FF48043E260A360002187
:100D70002046FFF7D7FC012384F844308BE7A368B3
:100D8000E2685B0843EAD20292B229462046FFF7A6
:100D9000ECFE00287FF46BAF40F6FF70FFF734FCE9
:100DA000E5E7012577E700BF003802400038014041
:100DB00000D3CEFEBFE1E40040F1E9FD3F787D01C4
:100DC00000796CFCFF596202001F0AFA7FF0FA02F8
:100DD00090F84530012B73B505464FF0020031D035
:100DE00000242B6885F8440001941A68012642F01B
:100DF000080285F845601A601B680193FFF76CFCD8
:100E00002B68019A1A6000941A6842F004021A6072
:100E10001B680093FFF760FC2B68009A1A60284655
:100E2000FFF76CFC2A6841F218032046D15841F4C0
:100E30000051D150D15841F00201D15085F84460A1
:100E400085F8454002B070BD2DE9F04F85B00B68C4
:100E5000DFF8AC81684ADFF8AC91019300230124EC
:100E6000019D9C402540AC4240F0B0804C6824F08D
:100E7000100C0CF1FF36012E4FEA430E12D8876892
:100E8000032606FA0EF627EA0607CE6806FA0EF6DD
:100E90003E4386604768C4F3001627EA05079E4074
:100EA0003E4346600326C76806FA0EF6F64307EA95
:100EB000060A8F6807FA0EF747EA0A07BCF1020F25
:100EC000C76016D14FEAD30A00EB8A0A03F0070B7A
:100ED000DAF820704FEA8B0B4FF00F0C0CFA0BFC7A
:100EE00027EA0C0C0F6907FA0BF747EA0C07CAF858
:100EF000207007683E4004F0030707FA0EFE4EEA32
:100F000006060660E60061D54FF0000BCDF80CB088
:100F1000D8F84470394E47F48047C8F84470D8F880
:100F2000447007F480470397039F23F0030707F1FA
:100F3000804707F59C3703F0030CD7F808A04FEA69
:100F40008C0C4FF00F0E0EFA0CFEB0422AEA0E0E79
:100F500043D006F58066B04241D006F58066B042C7
:100F60003FD006F58066B0423DD006F58066B042BF
:100F70003BD048453BD006F50066B04239D006F577
:100F80008066B04214BF0826072606FA0CF646EA29
:100F90000E06BE601668EF4314F4803F0CBF3E405F
:100FA0002E431660566814F4003F0CBF3E402E439B
:100FB0005660966814F4801F0CBF3E402E43966026
:100FC000D668A40254BF3E402E43D6600133102B96
:100FD0007FF445AF05B0BDE8F08F5E46D5E701264A
:100FE000D3E70226D1E70326CFE70426CDE705267F
:100FF000CBE70626C9E700BF003C014000000240E5
:1010000000380240001402400AB1816170470904AF
:10101000FBE700002DE9F341044608B901203FE059
:101020000368DD0710D4236898075AD423681A0789
:1010300000F19C8023685B0700F1BA80A06900285A
:1010400040F01B8100202BE0A44B9A6802F00C02B8
:10105000042A07D09A6802F00C02082A0AD15B68B9
:10106000590207D59D4B1B689A03DCD56368002B9A
:10107000D9D1D3E76368994DB3F5803F13D12B687D
:1010800043F480332B60FFF7B9FA944D06462B6882
:101090009B03C8D4FFF7B2FA801B6428F7D903205A
:1010A00002B0BDE8F081B3F5A02F04D12B6843F462
:1010B00080232B60E3E72A6822F480322A602A68C2
:1010C00022F480222A60002BDDD1FFF797FA064632
:1010D0002B689F03A7D5FFF791FA801B6428F7D9E7
:1010E000DDE77E4B9A6812F00C0F07D09A6802F089
:1010F0000C02082A11D15B685E020ED4774B1A6885
:10110000950702D5E268012A88D11A68216922F080
:10111000F80242EAC1021A6088E7E268704BB2B195
:1011200001221A60FFF76AFA6C4D06462B68980791
:1011300007D52B68226923F0F80343EAC2032B602A
:1011400074E7FFF75BFA801B0228EFD9A7E71A6064
:10115000FFF754FA614D06462B6899077FF566AF95
:10116000FFF74CFA801B0228F6D998E762695D4BBD
:101170007AB101221A60FFF741FA584D06466B6FAB
:101180009F073FF557AFFFF739FA801B0228F6D9C2
:1011900085E71A60FFF732FA504D06466B6F9807E5
:1011A0007FF548AFFFF72AFA801B0228F6D976E7C9
:1011B0004A4B1A6C12F0805228D101921A6C42F0FC
:1011C00080521A641B6C03F080530193019B01262B
:1011D000454D2B68D9051BD5A368404D012B27D160
:1011E0002B6F43F001032B67FFF708FA3B4D0746CF
:1011F00041F288382B6F9B0739D5002E3FF41EAF84
:10120000364A136C23F08053136417E70026DFE798
:101210002B6843F480732B60FFF7F0F907462B68C7
:10122000DA05D9D4FFF7EAF9C01B0228F7D936E767
:10123000052B04D12B6F43F004032B67D0E72A6FF3
:1012400022F001022A672A6F22F004022A67002B8B
:10125000CAD1FFF7D3F941F2883807462B6F9807B8
:10126000CBD5FFF7CBF9C01B4045F7D917E7FFF700
:10127000C5F9C01B4045BDD911E7184DAB6803F057
:101280000C03082B47D0194E00230228336035D1B8
:10129000FFF7B4F907462B68990129D4226AE3695C
:1012A0001343626A43EA8213E26A43EA0263A26A70
:1012B0000A4C5208013A43EA02436B60012333604F
:1012C000FFF79CF9054623689A013FF5BBAEFFF78F
:1012D00095F9401B0228F6D9E1E600BF003802402C
:1012E00000004742800E47420070004060004742C5
:1012F000FFF784F9C01B0228CDD9D0E6FFF77EF9AD
:1013000004462B689B017FF59DAEFFF777F9001B24
:101310000228F6D9C3E601283FF4C2AEA868E36903
:1013200000F480029A427FF479AE226A00F03F0313
:1013300093427FF473AE626A47F6C07303409342F0
:101340007FF46CAEA26A00F4403393427FF466AE41
:10135000E36A00F07060C01A18BF0120A0E600BF69
:10136000134908B58B6803F00C03042B03D0082B3A
:1013700003D0104808BD104808BD4A684B6849684A
:1013800013F4800314BF0C480A48C1F3881118BF36
:10139000002302F03F02A1FB0001FEF781FF044B96
:1013A0005B68C3F3014301335B00B0FBF3F008BD9E
:1013B000003802400024F40000127A002DE9F041C8
:1013C0000D46044610B90120BDE8F081444B1A686F
:1013D00002F00F028A4229D321688F072ED4C80752
:1013E00041D43F4B1A6802F00F02954267D322683E
:1013F00051076DD4130707D53A4A2169936823F43E
:10140000604343EAC1039360FFF7AAFF354B364AB6
:101410009B68C3F30313D35CD840344B1860344B40
:10142000186809F087F90020BDE8F081CAB21A7087
:101430001B6803F00F039942C5D1CDE7294B11F08A
:10144000040F1EBF9A6842F4E0529A600E0742BF32
:101450009A6842F460429A609A68A06822F0F002AA
:1014600002439A60BBE762681E4B012A1DD11B68CC
:1014700013F4003FA7D01B4EB36823F003031343BC
:10148000B360FFF7BBF841F288380746B36862687B
:1014900003F00C03B3EB820FA3D0FFF7AFF8C01B30
:1014A0004045F3D90320BDE8F081911E01291B6856
:1014B00002D813F0007FDDE713F0020FDAE7EAB29B
:1014C0001A701B6803F00F039D427FF47CAF8EE718
:1014D0000449E0688B6823F4E05303438B6089E799
:1014E000003C024000380240F5D9000814000020FA
:1014F00004000020014B1868704700BF1400002052
:10150000044B054A9B68C3F38223D35C034A1068EB
:10151000D84070470038024005DA00081400002067
:10152000044B054A9B68C3F34233D35C034A1068FB
:10153000D84070470038024005DA00081400002047
:101540000F2303600B4B9A6802F0030242609A6813
:1015500002F0F00282609A6802F4E052C2609B6876
:10156000DB0803F4E0530361034B1B6803F00F0334
:101570000B60704700380240003C02400368DA68A4
:1015800042F00102DA609A6802F00702062A1EBFE2
:101590001A6842F001021A600020704770477047D5
:1015A0007047704703681A69910710B504460ED555
:1015B000DA6892070BD56FF002021A619B6901226B
:1015C0009B07027777D0FFF7EAFF00232377236892
:1015D0001A69500710D5DA6851070DD56FF004026B
:1015E0001A619B69022213F4407F2277204668D05B
:1015F000FFF7D5FF0023237723681A6912070FD559
:10160000DA6810070CD56FF008021A61DB69042252
:101610009907227720465AD0FFF7C1FF002323778E
:1016200023681A69D20610D5DA68D0060DD56FF096
:1016300010021A61DB69082213F4407F22772046EA
:101640004BD0FFF7ACFF0023237723681A69D1073B
:1016500008D5DA68D20705D56FF001021A61204675
:1016600008F0A0FF23681A69100608D5DA68110689
:1016700005D56FF080021A61204600F096F92368C4
:101680001A69520608D5DA68500605D56FF040028F
:101690001A612046FFF785FF23681A69910622D553
:1016A000DA6892061FD56FF0200220461A61BDE865
:1016B000104000F079B9FFF771FF2046FFF770FF87
:1016C00083E7FFF76BFF2046FFF76AFF92E7FFF71C
:1016D00065FF2046FFF764FFA0E7FFF75FFF2046A6
:1016E000FFF75EFFAFE710BD304A0368904212D0AB
:1016F000B0F1804F0FD0A2F57C4290420BD002F5A2
:101700008062904207D002F58062904203D002F5D9
:101710007842904219D14A6823F070031343234A58
:10172000904229D0B0F1804F26D0A2F57C42904261
:1017300022D002F5806290421ED002F58062904273
:101740001AD002F57842904216D0194A904213D02E
:1017500002F5806290420FD002F5806290420BD079
:10176000A2F59832904207D002F58062904203D0F1
:1017700002F58062904203D1CA6823F44073134398
:101780004A6923F08003134303608B68C3620B68CC
:101790008362064B984203D003F58063984201D1DF
:1017A0000B69036301234361704700BF00000140E0
:1017B0000040014010B50446A0B190F83D3003F060
:1017C000FF021BB980F83C2008F048FF022384F890
:1017D0003D302068211DFFF787FF012384F83D304D
:1017E000002010BD012010BD10B584680A4324F408
:1017F0007F4442EA03232343836010BD90F83C30CA
:10180000012B70B504464FF0020019D084F83D005A
:101810002068012384F83C30836823F47F4323F05D
:10182000770383600B68402B65D015D8102B0CD044
:1018300007D853B10123002084F83D3084F83C00E0
:1018400070BD202B01D0302BF4D1826843F0070308
:1018500022F0700213431AE0602B34D019D8502BB9
:10186000E8D14A68CE68016A056A25F0010505627B
:10187000836921F00A0123F0F00343EA06130A43C7
:1018800083610262836823F0700343F0570383602F
:10189000D0E7702B0CD0B3F5005FCBD1CB684A6892
:1018A0008968FFF7A1FF2268936843F4804308E04A
:1018B000CB684A688968FFF797FF2268936843F00E
:1018C00077039360B6E74D68CE68016A21F0100196
:1018D00001628269036A22F4704223F0A00343EAA2
:1018E000051342EA063282610362836823F07003C3
:1018F00043F06703CBE74A68CE68016A056A25F0C2
:1019000001050562836921F00A0123F0F00343EA2F
:1019100006130A4383610262836823F0700343F075
:101920004703B4E790F83C30012B30B54FF0020389
:1019300035D080F83D3003680D685C6824F0700491
:1019400001222C4380F83C209A685C60154CA3422D
:101950001AD0B3F1804F17D0A4F57C44A34213D022
:1019600004F58064A3420FD004F58064A3420BD039
:1019700004F57844A34207D004F57054A34203D081
:10198000A4F59434A34204D1496822F080020A43AA
:101990009A60012380F83D30002380F83C301846DF
:1019A00030BD00BF000001407047704738B5036884
:1019B000C1681A69044622F440520A431A61256933
:1019C000A268D968C0692A43656921F416412A438F
:1019D00021F00C0102430A43DA605A69A16922F43A
:1019E00040720A43B0F5004F5A61254A29D193420B
:1019F00003D002F58062934220D1FFF791FD626827
:101A0000256892184FF000034FF019015B41A0FBCD
:101A10000101FEF745FC6421B0FBF1F401FB140366
:101A2000DB003233B3FBF1F303F007025B0002EBA0
:101A3000041203F4F8731344AB6038BDFFF760FD84
:101A4000DDE7934202D00F4A934216D1FFF768FDBB
:101A50006368256819219A00A0FB01019B0FFEF71E
:101A60001FFC6422B0FBF2F102FB11031B013233B5
:101A7000B3FBF2F303EB0113DEE7FFF741FDE7E70A
:101A80000010014000140140F8B504460E46174608
:101A90001D4621680B6836EA030301D10020F8BD1A
:101AA0006B1CF7D095B92368DA6822F4D072DA603B
:101AB0005A6922F001025A61202384F8393084F8EF
:101AC0003A30002384F838300320F8BDFEF796FD45
:101AD000C01B8542DDD2E6E710B5044640B390F85E
:101AE000393003F0FF021BB980F8382008F0ECFD14
:101AF0002268242384F83930D36823F40053D36058
:101B00002046FFF753FF23681A6922F490421A61B6
:101B10005A6922F02A025A61DA6842F40052DA6005
:101B200000202023E06384F8393084F83A3010BD77
:101B3000012010BD2DE9F8431F4690F83930202BC5
:101B400004460D46904651D100294CD0002A4AD077
:101B500090F83830012B49D0012380F838304FF00D
:101B600000092123C0F83C9080F83930FEF746FD8B
:101B7000A4F824800646A4F8268084F83890E38CE4
:101B80009BB25BB93B46324640212046FFF77CFFC3
:101B9000A0B9202384F83930BDE8F883E38C013BF9
:101BA0009BB2E384A368B3F5805F32463B464FF0B7
:101BB000800120460ED1FFF767FF10B10320BDE87A
:101BC000F8832B882268C3F308035360236943B961
:101BD0000235D4E7FFF758FF0028EFD123682A78B1
:101BE0005A600135CBE70120BDE8F8830220BDE84B
:101BF000F88308B501F070FA002008BDEFF3058303
:101C00000BB101F0ADBA01F0A5BA70B50546466951
:101C10002A694068B5F908400B4686B0296876B154
:101C2000AD6965B1842C14BF0334002402958DE89E
:101C3000500001F0EDF90590059806B070BD842CB8
:101C400014BF0334002405AD92B28DE8300001F0DA
:101C500016FA0128F0D00020EFE708B5002808BFE9
:101C6000012001F08FFB002008BD4168012009B16F
:101C700000F0F3BD00F0E6BD13B500240194E0B11F
:101C8000EFF30583A3B101AA214601F00FF8012863
:101C900002D0FF2002B010BD019B3BB1084B4FF0BA
:101CA00080521A60BFF34F8FBFF36F8F0020F1E7B0
:101CB00000F03CFF0128ECD1F8E78020EAE700BF04
:101CC00004ED00E037B544680D466CB101291BD125
:101CD00003230022009328462346114600F084FC8B
:101CE0000546284603B030BD01290FD128460322FE
:101CF000214600F0C2FC05460028F2D023462246C9
:101D0000214600F0DFFCECE70025EAE72546E8E79E
:101D100013B500240194E0B1EFF30583A3B101AA48
:101D2000214600F0C3FF012802D0FF2002B010BD01
:101D3000019B3BB1084B4FF080521A60BFF34F8FAD
:101D4000BFF36F8F0020F1E700F0F0FE0128ECD127
:101D5000F8E78020EAE700BF04ED00E013B50024B7
:101D60000194EFF3058393B101A900F0E6FD01288A
:101D700013D1019B13B9002002B010BD084B4FF0E6
:101D800080521A60BFF34F8FBFF36F8FF3E71A468D
:101D9000194600F097FC0128EDD0FF20ECE700BFCA
:101DA00004ED00E0FFF7DABF07B582684AB1C36807
:101DB0003BB10021009103C800F016FC03B05DF8B0
:101DC00004FB03C8002203B05DF804EB00F055BC2F
:101DD0001FB5002401910394A24208BF0122EFF332
:101DE0000583ABB1234603AA01A900F044FD0128F5
:101DF00002D0FF2004B010BD039B3BB1074B4FF056
:101E000080521A60BFF34F8FBFF36F8F0020F1E74E
:101E100001A900F057FC0128EBD1F7E704ED00E041
:101E2000F0B585B000260446174608460391029691
:101E300001AD11B98023019317E00096EFF30583FC
:101E4000D3B16A4602A900F031FF012804BF102374
:101E50000193009B18BF01963BB10D4B4FF0805290
:101E60001A60BFF34F8FBFF36F8F95E8070084E8C8
:101E70000700204605B0F0BD02A900F0B3FD01281F
:101E800001D11023D7E7002F0CBF00234023D2E756
:101E900004ED00E000F1080343604FF0FF32C3603F
:101EA0000361002382600360704700230361704771
:101EB00043684B609A688A609A68516099600368C9
:101EC00008610133036070470A68531C30B50AD1BA
:101ED00003695A684A6091608B60596003680861C1
:101EE0000133036030BD00F108035C682568AA4235
:101EF000EFD32346F9E74168826803698A60826804
:101F000051605968884208BF5A60002202611A680D
:101F1000013A1A601868704782B0002301930D4B94
:101F20001B68013308D04FF0500383F31188BFF3CF
:101F30006F8FBFF34F8FFEE74FF0500383F311888D
:101F4000BFF36F8FBFF34F8F019B002BFCD002B00C
:101F5000704700BF0800002008480068006880F350
:101F600008884FF0000080F3148862B661B6BFF3B2
:101F70004F8FBFF36F8F00DF00BF000008ED00E060
:101F8000DFF80C00016841F4700101607047000047
:101F900088ED00E04FF0807340F8043C074B40F8B8
:101FA0000C3C21F001016FF0020340F8081C40F8DE
:101FB000202C40F8243C4438704700BF191F00080B
:101FC000074B19680868B0E8F04F80F30988BFF341
:101FD0006F8F4FF0000080F311887047AFF30080DF
:101FE000B85000204FF0500383F31188BFF36F8F78
:101FF000BFF34F8F0A4A13680133012B13600DD1D1
:10200000084B1B6813F0FF0F08D04FF0500383F309
:102010001188BFF36F8FBFF34F8FFEE7704700BF8C
:102020000800002004ED00E0084A136843B94FF0AF
:10203000500383F31188BFF36F8FBFF34F8FFEE719
:10204000013B13600BB983F311887047080000202F
:10205000EFF30980BFF36F8F154B1A681EF0100F56
:1020600008BF20ED108A20E9F04F10602DE909002B
:102070004FF0500080F31188BFF34F8FBFF36F8F85
:1020800001F0A4F94FF0000080F3118809BC196831
:102090000868B0E8F04F1EF0100F08BFB0EC108ACF
:1020A00080F30988BFF36F8F704700BFAFF30080E4
:1020B000B850002008B54FF0500383F31188BFF3E8
:1020C0006F8FBFF34F8F01F053F818B1034B4FF0F0
:1020D00080521A60002383F3118808BD04ED00E0EC
:1020E000084A0949002313600B60084B4FF47A71CA
:1020F0001B68B3FBF1F30649013B0B600723136038
:10210000704700BF10E000E018E000E0140000207D
:1021100014E000E0394B3A4A13B51968914208D1EE
:102120004FF0500383F31188BFF36F8FBFF34F8FCE
:10213000FEE71A68334B9A4208D14FF0500383F3FD
:102140001188BFF36F8FBFF34F8FFEE72E4B1A78C6
:10215000D2B20192FF221A701B782C4ADBB28DF8A2
:1021600003309DF8033003F050031370284B07220F
:102170001A6000219DF80300000602F1FF340DD41F
:1021800001B11A601A68032A11D04FF0500383F38B
:102190001188BFF36F8FBFF34F8FFEE79DF80320C9
:1021A0005200D2B28DF8032001212246E2E712024A
:1021B00002F4E0621A60019B134ADBB21370154B04
:1021C0001A6842F470021A601A6842F070421A608B
:1021D000FFF786FF104B00241C60FFF7D1FE0F4A6B
:1021E000136843F040431360FFF7B6FE01F0EEF8CA
:1021F000FFF792FE204602B010BD00BF00ED00E0E8
:1022000071C20F4170C20F4100E400E0980000204D
:102210009C00002020ED00E00800002034EF00E0EA
:10222000EFF305830F2B0ED9104A9B5C104A1278EE
:102230009A4208D94FF0500383F31188BFF36F8F90
:10224000BFF34F8FFEE70B4B0B4A1B68126803F47A
:10225000E063934208D94FF0500383F31188BFF332
:102260006F8FBFF34F8FFEE7704700BFF0E300E0D2
:10227000980000200CED00E09C00002010B50F4BF2
:102280001A68824218D35C681919884201BF4168F4
:10229000184609195960446801198A4207D108494A
:1022A00009688A421FBF5168126809194160984243
:1022B000026018BF186010BD1346E1E7B05000205F
:1022C000A00000202DE9F041044600F03BFF3E490C
:1022D0003E4D0B680BBB3E4A56071FBFD01D20F07A
:1022E000070002F5A0431B1A14BF02464FF4A04397
:1022F0001344083B23F00703364E0B600020706048
:10230000326058601860981A1360334B5060186040
:10231000324B18604FF000432B602F68274216D1D4
:10232000002C41D004F1080358071CBF23F0070319
:10233000083363B1294A1668B342904607D8254A44
:1023400015686868834204D809688D4207D1002463
:102350002AE02C68002CF7D02A462546F1E72968A8
:1023600014681160C21A102A0FD9E818410708D062
:102370004FF0500383F31188BFF36F8FBFF34F8F7C
:10238000FEE742606B60FFF779FF13496B680868EE
:10239000F61A1F4386424FF00003C8F8006038BFAA
:1023A0000E6008346F602B6000F074FF630708D084
:1023B0004FF0500383F31188BFF36F8FBFF34F8F3C
:1023C000FEE72046BDE8F081A0000020A4500020D8
:1023D000A4000020B0500020AC500020A8500020E5
:1023E00010B5044670B3184A50F8043C1268134202
:1023F00008D14FF0500383F31188BFF36F8FBFF301
:102400004F8FFEE750F8081C41B14FF0500383F3A3
:102410001188BFF36F8FBFF34F8FFEE723EA0203EC
:1024200040F8043C00F08EFE084A54F8043C116861
:10243000A4F108000B441360FFF720FFBDE8104033
:1024400000F028BF10BD00BFA4500020A8500020FD
:1024500010B50446FFF7C6FDA46BFFF7E5FDB4FA1F
:1024600084F0400910BD70B51546026C866B0446B9
:1024700042B905689DB9406801F0F0F86560013621
:10248000A66370BD6DB9806808F05DFAA368226C20
:1024900013446268A360934201D32368A3600020C1
:1024A000EDE7C06808F04FFA236CE26821685B42F0
:1024B0001A448A42E2603EBF62689B18E360022DC4
:1024C000EDD10EB1013EEAE73046D8E7034610B43D
:1024D0001A6C084662B1D9685C681144A142D9609F
:1024E00024BF1968D960D9685DF8044B08F02BBA8D
:1024F0005DF8044B704770B50446FFF773FD94F820
:10250000455004F124066DB2002D14DCFF2384F83D
:102510004530FFF789FDFFF765FD94F8445004F15D
:1025200010066DB2002D12DCFF2384F84430BDE8A4
:102530007040FFF779BD636A002BE7D0304600F0AA
:1025400099FF08B101F020F8013D6DB2DCE7236985
:10255000002BE9D0304600F08DFF08B101F014F8EF
:10256000013D6DB2DEE7000038B50D46044640B9C6
:102570004FF0500383F31188BFF36F8FBFF34F8F7A
:10258000FEE7FFF72FFD206CE36B2268A260434358
:10259000D1181B1A13446160E3600021FF23A1637B
:1025A00084F8443084F8453095B9236963B104F167
:1025B000100000F05FFF38B10A4B4FF080521A60F4
:1025C000BFF34F8FBFF36F8FFFF72EFD012038BD94
:1025D00004F11000FFF75EFC04F12400FFF75AFC41
:1025E000F2E700BF04ED00E013B51C4640B94FF020
:1025F000500383F31188BFF36F8FBFF34F8FFEE754
:1026000043B94FF0500383F31188BFF36F8FBFF3CB
:102610004F8FFEE74AB1D9B94FF0500383F31188C9
:10262000BFF36F8FBFF34F8FFEE789B14FF05003B9
:1026300083F31188BFF36F8FBFF34F8FFEE74FF027
:10264000500383F31188BFF36F8FBFF34F8FFEE703
:1026500048230193019B482BF1D10123002908BF96
:102660002246E063216484F8463022601946204601
:10267000FFF77AFF204602B010BD70B50D46064642
:1026800040B94FF0500383F31188BFF36F8FBFF34E
:102690004F8FFEE748434830FFF714FE044650B121
:1026A000002380F8463045B92060E66325640121A7
:1026B0002046FFF759FF204670BD00F14803036034
:1026C000F3E700002DE9FF47894601921F460446C3
:1026D00040B94FF0500383F31188BFF36F8FBFF3FE
:1026E0004F8FFEE7002940F08880036C002B00F03C
:1026F00084804FF0500383F31188BFF36F8FBFF3D3
:102700004F8FFEE7019E002E00F082804FF05003B5
:1027100083F31188BFF36F8FBFF34F8FFEE7019DE7
:102720001DB9FFF781FC002058E016B902A800F09F
:10273000E3FEFFF779FC00F005FDFFF753FC94F88A
:102740004430FF2B08BF84F8448094F84530FF2BB9
:1027500008BF84F84580FFF767FC01A902A800F0D4
:10276000D7FE002843D1FFF73DFCA66BE56BFFF7D2
:102770005BFCAE4235D1019904F1100000F060FE1F
:102780002046FFF7B8FE00F085FD38B94FF08053C2
:10279000CAF80030BFF34F8FBFF36F8F0126FFF7EA
:1027A00021FCA26BE36B9A4201D3022FB7D13A46C8
:1027B00049462046FFF757FE636A1BB104F1240027
:1027C00000F058FE38B1194B4FF080521A60BFF339
:1027D0004F8FBFF36F8FFFF727FC012004B0BDE8D8
:1027E000F0872046FFF787FE00F054FDD6E720462D
:1027F000FFF781FE00F04EFD95E7022F02D1E36B5B
:10280000012B0AD100F0C6FE00283FF47BAF002662
:102810004FF00008DFF814A0C1E74FF0500383F336
:102820001188BFF36F8FBFF34F8FFEE704ED00E019
:1028300038B1002343600360C3601A461946FFF7AE
:1028400041BF704710B5024600210120FFF715FF78
:102850000446FFF7EDFF204610BD13B500220B46DE
:10286000009011460120FFF7BFFE0446FFF7E0FF8E
:10287000204602B010BD2DE9F843884691461F4618
:10288000044640B94FF0500383F31188BFF36F8FB4
:10289000BFF34F8FFEE709BB036CFBB14FF0500352
:1028A00083F31188BFF36F8FBFF34F8FFEE704F1FF
:1028B000240000F0DFFD002834D0B9F1000F31D042
:1028C0000120C9F8000086F31188BDE8F8830135BE
:1028D0006DB284F8455025E00020F4E7022F02D1C4
:1028E000E36B012B20D1FFF79BFCEFF311864FF038
:1028F000500383F31188BFF36F8FBFF34F8FA26B29
:10290000E36B9A4201D3022FE6D194F845503A4640
:102910006DB241462046FFF7A6FD6B1CD7D1636A16
:10292000002BC4D10120CEE74FF0500383F3118870
:10293000BFF36F8FBFF34F8FFEE770B50D460446B0
:1029400040B94FF0500383F31188BFF36F8FBFF38B
:102950004F8FFEE7036C43B14FF0500383F31188B0
:10296000BFF36F8FBFF34F8FFEE703680BB9436868
:1029700073BBFFF755FCEFF311864FF0500383F361
:102980001188BFF36F8FBFF34F8FA26BE36B9A4237
:1029900001D3002014E094F8453001325BB2A26309
:1029A0005A1C10D1636A0BB9012009E004F124001C
:1029B00000F060FD0028F7D0002DF5D00120286040
:1029C00086F3118870BD01335BB284F84530EBE7C4
:1029D0004FF0500383F31188BFF36F8FBFF34F8F16
:1029E000FEE700002DE9F04385B0884601920446D9
:1029F00040B94FF0500383F31188BFF36F8FBFF3DB
:102A00004F8FFEE7002940F08680036C002B00F01A
:102A100082804FF0500383F31188BFF36F8FBFF3B1
:102A20004F8FFEE7019E002E7AD04FF0500383F3C4
:102A30001188BFF36F8FBFF34F8FFEE7019D1DB964
:102A4000FFF7F2FA002052E016B902A800F054FD98
:102A5000FFF7EAFA00F076FBFFF7C4FA94F8443087
:102A6000FF2B08BF84F8447094F84530FF2B08BF53
:102A700084F84570FFF7D8FA01A902A800F048FDD4
:102A800000283DD12046FFF7E3FC98B3019904F1FB
:102A9000240000F0D5FC2046FFF72DFD00F0FAFBE6
:102AA00038B94FF08053C9F80030BFF34F8FBFF3F0
:102AB0006F8F0126FFF796FAA56B002DBED0414619
:102AC0002046013DFFF702FDA563236963B104F1D0
:102AD000100000F0CFFC38B1134B4FF080521A6059
:102AE000BFF34F8FBFF36F8FFFF79EFA012005B042
:102AF000BDE8F0832046FFF7FEFC00F0CBFBD8E7F3
:102B00002046FFF7F8FC00F0C5FB2046FFF7A0FCCD
:102B10000028CED096E700F03DFD002882D00026A8
:102B20000027DFF80490C5E704ED00E02DE9FF4140
:102B30000446019140B94FF0500383F31188BFF36D
:102B40006F8FBFF34F8FFEE7056C45B14FF0500319
:102B500083F31188BFF36F8FBFF34F8FFEE700F051
:102B600019FD18B9019D002D40F09580DFF83881DE
:102B70002E460027FFF736FAA36BE3B1013BA363B0
:102B8000236813B900F014FE6060236963B104F197
:102B9000100000F06FFC38B1434B4FF080521A60C8
:102BA000BFF34F8FBFF36F8FFFF73EFA0125284623
:102BB00004B0BDE8F081019B63B945B14FF050030B
:102BC00083F31188BFF36F8FBFF34F8FFEE7FFF7DB
:102BD0002BFAECE716B902A800F08EFCFFF724FAF6
:102BE00000F0B0FAFFF7FEF994F84430FF2B08BF6D
:102BF00084F8447094F84530FF2B08BF84F8457082
:102C0000FFF712FA01A902A800F082FC40BB20469F
:102C1000FFF71EFCF0B123683BB9FFF7E3F96068EA
:102C200000F0C8FC0546FFF7FFF9019904F1240004
:102C300000F006FC2046FFF75EFC00F02BFB38B9E5
:102C40004FF08053C8F80030BFF34F8FBFF36F8F42
:102C500001268FE72046FFF74EFC00F01BFBF7E74D
:102C60002046FFF748FC00F015FB2046FFF7F0FB7D
:102C70000028EDD0002D9AD0FFF7B4F9616A19B1A0
:102C8000236B1968C1F10701606800F037FD00256A
:102C9000FFF7CAF98BE74FF0500383F31188BFF3B6
:102CA0006F8FBFF34F8FFEE704ED00E02DE9F8438F
:102CB00089469046054640B94FF0500383F311888A
:102CC000BFF36F8FBFF34F8FFEE771BB036C63B32E
:102CD0004FF0500383F31188BFF36F8FBFF34F8F13
:102CE000FEE795F84460494676B22846FFF7EEFBCA
:102CF000013C731CAC6313D12B690BB901200BE0B1
:102D000005F1100000F0B6FB0028F7D0B8F1000F75
:102D1000F4D00120C8F8000087F31188BDE8F883DB
:102D2000013676B285F84460E8E7FFF779FAEFF309
:102D300011874FF0500383F31188BFF36F8FBFF3F8
:102D40004F8FAC6B002CCCD12046E5E72DE9F0414C
:102D50000646FFF747F92D4B2D4C1A682D4F0132CF
:102D60001A602568002D45D126601B68012B1CD1F7
:102D700078191435FFF78EF88C2DF9D1DFF8C08063
:102D8000254D4046FFF786F82846FFF783F823488D
:102D9000FFF780F82248FFF77DF82248FFF77AF81E
:102DA000214BC3F80080214B1D60214A2149136843
:102DB000086801331360F26A01239340034314202F
:102DC0000B6000FB0270311DFFF772F8FFF72CF962
:102DD000194B1B6863B12368DA6AF36A9A4207D217
:102DE000164B4FF080521A60BFF34F8FBFF36F8FB7
:102DF000BDE8F081104B1B68002BD6D12368DA6A3E
:102E0000F36A9A4298BF2660CFE700BF5051002076
:102E1000B8500020C45000207C5100209851002060
:102E2000C4510020B0510020BC500020C0500020F0
:102E30006051002064510020AC51002004ED00E0FE
:102E400068510020064A13681968064B19B94FF0FB
:102E5000FF321A6070471268D268D2685268F8E789
:102E6000BC500020905100202DE9F0470A9CDDF86D
:102E70002480266B02F18042013A06EB82069A46D4
:102E800081464B1E26F0070604F134020F315878B4
:102E900002F8010B13F8010F08B18B42F7D1089D1E
:102EA000062D28BF06250027E5626564201D84F8ED
:102EB0004370A764FEF7F9FFC5F1070504F1180098
:102EC000FEF7F3FFE7642461A561646284F8507043
:102ED000524649463046FFF75DF82060B8F1000FD2
:102EE00001D0C8F80040BDE8F08710B590F8513027
:102EF00004463BB9006BFFF773FA2046BDE810406B
:102F0000FFF76EBA012BF9D0022B08D04FF0500317
:102F100083F31188BFF36F8FBFF34F8FFEE710BDB0
:102F200080B5DFF85C80124F124C134D236863B9F3
:102F3000124B1B68012BF8D94FF08053C8F80030B2
:102F4000BFF34F8FBFF36F8FEEE7FFF74BF8FB68D0
:102F5000DE68301DFEF7CFFF2B68013B2B60236836
:102F6000013B2360FFF760F83046FFF7BEFFDDE767
:102F7000C45100205451002050510020C450002062
:102F800004ED00E0F8B51B4B1B4E1D68044630688D
:102F900004300F46FEF7AFFF334640B93168174E95
:102FA000C96A32680120884022EA00023260621C4D
:102FB00007D137B1196812480431BDE8F840FEF76F
:102FC00077BF2C441A68A542546007D90D4A10688F
:102FD0001968BDE8F8400431FEF776BF0A4A106868
:102FE00019680431FEF770FF084B1A68944238BF25
:102FF0001C60F8BDD8510020B8500020645100205A
:10300000B0510020C0500020BC5000209051002042
:1030100070B586B00B9D0C9C45B94FF0500383F3FF
:103020001188BFF36F8FBFF34F8FFEE744B94FF0A6
:10303000500383F31188BFF36F8FBFF34F8FFEE709
:1030400054260496049E542E08D04FF0500383F368
:103050001188BFF36F8FBFF34F8FFEE72563022503
:1030600084F8515005AD01950A9D02940095FFF733
:10307000FBFE2046FFF76AFE059806B070BD2DE9FD
:10308000F043074685B09000884616469946FFF7FC
:1030900019F90546E8B15420FFF714F90446A8B120
:1030A000002380F851300D9B056301930C9B029027
:1030B000009332464B4641463846FFF7D5FE204640
:1030C000FFF744FE012005B0BDE8F0832846FFF776
:1030D00087F94FF0FF30F6E710B588B0002407AA53
:1030E00006A905A80594069406F024FF059B029303
:1030F000069B019300942346079A0D490D48FFF75C
:1031000087FF90B14FF0500383F31188BFF36F8FA7
:10311000BFF34F8F084B4FF0FF321A60074B01226D
:103120001A60074B1C60FEF7F5FF08B010BD00BF2A
:1031300054BB0008212F000890510020AC51002002
:10314000D8510020024A136801331360704700BF52
:103150005C510020014B1868704700BFD851002017
:1031600008B5FFF75DF8014B186808BDD85100207D
:103170002DE9F84F3C4B1B68002B53D13B4B1C688F
:1031800001341C60BCB93A4B1A68126842B14FF066
:10319000500383F31188BFF36F8FBFF34F8FFEE7A8
:1031A000344A1968106818601160334A1368013393
:1031B0001360FFF747FE314D314F2B689C424FF0B3
:1031C000000B3ED3DFF8A880DFF8C490D8F80020C9
:1031D000126872BB4FF0FF322A6032E006F1040A37
:1031E0005046FEF788FEB16A19B106F11800FEF7E5
:1031F00082FEF06AD9F80030012202FA00F1194388
:10320000204BC9F800104FF0140E51460EFB003051
:10321000FEF74EFE3868F16AC26A914228BF4FF04D
:10322000010BD3E7184A1368013313604FF0000B0A
:1032300011E0D8F80020D268D66871688C42CDD2EF
:1032400029603A680F4BD16A14224A439A58022ADD
:1032500028BF4FF0010B0D4A1268002A18BF4FF02B
:10326000010B5846BDE8F88F5C510020D851002072
:10327000BC500020C05000209451002090510020EC
:10328000B8500020C450002058510020DC510020CC
:10329000645100202DE9F843314C236843B94FF0C5
:1032A000500383F31188BFF36F8FBFF34F8FFEE797
:1032B000FEF798FE2368013B236024682CB10024AC
:1032C000FEF7B2FE2046BDE8F883264B1B68002BB4
:1032D000F5D0DFF8A890244FDFF8A480D9F80030AB
:1032E000E3B90CB1FFF7AEFD204D2C6844B1204E80
:1032F0000127FFF73DFF00B13760013CF9D12C6099
:103300001B4B1B68002BDAD01A4B4FF080521A600F
:10331000BFF34F8FBFF36F8F0124D1E7D9F80C3083
:10332000DC68261D04F11800FEF7E5FD3046FEF7C7
:10333000E2FDE26A3968012505FA02F314200B4325
:1033400000FB028031463B60FEF7B2FD0A4BE26AA9
:103350001B68DB6A9A4224BF054B1D60BEE700BFB5
:103360005C51002050510020645100205851002031
:10337000DC51002004ED00E0B850002098510020FE
:10338000C450002008B540B90E4B4FF080521A606F
:10339000BFF34F8FBFF36F8F08BD0B4B196841B15F
:1033A0004FF0500383F31188BFF36F8FBFF34F8F3C
:1033B000FEE7FFF7C7FEFFF7E5FDFFF76BFF00280D
:1033C000E2D008BD04ED00E05C510020174B1A6804
:1033D000174B10B512B101221A6010BD1A60154BBF
:1033E0001B68B3FA83F3DBB2C3F11F031422124943
:1033F0005A4388188C5844B94FF0500383F311880E
:10340000BFF36F8FBFF34F8FFEE7446808326468E5
:1034100044600A44944204BF62684260142202FB82
:1034200003135B68DA68054BD6E700BF5C510020E8
:10343000DC51002064510020C4500020B85000200E
:1034400010B50C4640B94FF0500383F31188BFF319
:103450006F8FBFF34F8FFEE7054B19681831FEF7EA
:1034600033FD20460121BDE81040FFF78BBD00BFB2
:10347000B850002038B5C368DC6844B94FF0500339
:1034800083F31188BFF36F8FBFF34F8FFEE704F113
:1034900018052846FEF72FFD114B1B68E3B9251DC3
:1034A0002846FEF728FD0F49E26A08680123934089
:1034B00003430B600C4B1420294600FB0230FEF73F
:1034C000F7FC0A4BE26A1B68DB6A9A4283BF084B2F
:1034D00001201860002038BD29460648EFE700BFEC
:1034E0005C51002064510020C4500020B8500020DE
:1034F000DC51002098510020034B1B680360034BF4
:103500001B684360704700BF94510020D8510020D1
:1035100070B50C46054640B94FF0500383F311884F
:10352000BFF36F8FBFF34F8FFEE741B94FF05003EA
:1035300083F31188BFF36F8FBFF34F8FFEE7FEF762
:1035400051FD0F4B69681A682368581C0ED00D484E
:103550002E680068864201D08A420ED2521A9A42E0
:1035600009D29B1A23602846FFF7C6FF0024FEF706
:103570005BFD204670BD002323600124F7E700BFF8
:10358000D851002094510020014B01221A6070474D
:10359000DC510020054B1B6833B1054B1B68002B29
:1035A0000CBF02200020704701207047AC51002062
:1035B0005C5100202DE9F0410446002841D0244A06
:1035C000C36A1168C96A8B42174631D28269214D9C
:1035D000002AA1BF3A68D26AC2F1070282611426AA
:1035E000426906FB03539A422DD100F1040840467C
:1035F000FEF781FC184B48B9E06A4643AA592AB93C
:103600001A680121814022EA01021A603A681968A9
:10361000D26AE262012404FA02F00843186014201E
:10362000414600FB0250FEF743FC0120BDE8F0815B
:103630001368406CDC6AA0422CBF00200120BDE86A
:10364000F081BDE8F0813B68DB6AC362EDE700BF53
:10365000B8500020C450002064510020F8B5044642
:1036600008B90020F8BD224B1B68984208D04FF0E3
:10367000500383F31188BFF36F8FBFF34F8FFEE7C3
:10368000836C43B94FF0500383F31188BFF36F8FFE
:10369000BFF34F8FFEE7C16A426C013B91428364E6
:1036A000DFD0002BDDD1051D2846FEF724FC114E8E
:1036B000114A50B9E76A1421794373582BB913683A
:1036C0000120B84023EA00031360636CE362C3F196
:1036D0000701A1611168012404FA03F00843106096
:1036E000142000FB03602946FEF7E2FB2046F8BDEC
:1036F000B8500020C450002064510020F8B50446A2
:1037000000284DD0826C42B94FF0500383F31188EA
:10371000BFF36F8FBFF34F8FFEE7436C994238BF03
:103720001946C36A8B423BD0012A39D11D4A12681F
:10373000904208D14FF0500383F31188BFF36F8F8D
:10374000BFF34F8FFEE78269174DC162002A4FF029
:1037500014064269A8BFC1F1070106FB0353A8BFC5
:1037600081619A421CD1071D3846FEF7C4FBE26A0C
:103770000E4C40B95643AB592BB9236801219140F7
:1037800023EA010323602168012393400B431420A3
:103790002360394600FB0250BDE8F840FEF788BBC5
:1037A000F8BD00BFB8500020C45000206451002074
:1037B000044B1A681AB119688A6C01328A64186855
:1037C000704700BFB85000201D4B1B6807B513B1F0
:1037D0001C4A106898471C481B4D1C4E1C4C06F098
:1037E00070F9284606F072F901A9304605F084FF09
:1037F000284606F066F9019B33B92346692215492C
:10380000154807F0B3F8ECE71A78032A0BD0042A1E
:103810000FD0022A11D1181D07C89047019909201D
:1038200002F08EFBDDE798685A68904701990820FE
:10383000F6E75A6898689047D3E723469B22DEE76D
:10384000E4510020E8510020E8550020E05100201C
:10385000B7BB0008E7BB000805BC0008F8B5074681
:1038600010480E46154606F00BF928B90E4B0F49C5
:103870000F48B52207F07AF8092002F045FB04460C
:1038800068B10223037047608660C5600146054841
:1038900006F0CAF828B12146092002F051FB4FF08A
:1038A000FF30F8BDE0510020B7BB0008AABB0008FC
:1038B00005BC000891F82B3013F0180F14BF024A12
:1038C000024AFFF7CBBF00BFFD980008295000084F
:1038D00037B505460C4600F0EAFE124B12481D6053
:1038E000124B06211C6006F08DF830B1104B1149C7
:1038F000114840F2D51207F039F8104806F0D2F816
:1039000030B10B4B0E490C4840F2D91207F02EF89B
:10391000002200924FF480630A490B4806F0D9F860
:1039200003B030BDE4510020E0510020E8510020F8
:10393000B7BB000859BB000805BC0008E8550020CB
:103940007CBB0008C93700089DBB0008038850FAFB
:1039500083F210B50C0A14719A1C0133028050FADC
:1039600083F0017110BD038830B550FA83F4150A55
:1039700025719C1C013350FA83F304801A710C46A4
:10398000631A9BB29A4200D830BD03885D1C058043
:1039900050FA83F314F8015B1D71F1E7F8B50D4699
:1039A00016461F46044630B90A4B0B490B4840F2F5
:1039B000051206F0DBFF0023E258E018904204D124
:1039C000002380E8C8008581F8BD1033402BF3D177
:1039D0000020F8BD6DBE0008A2BE000805BC0008AE
:1039E00070B54C1C0D46A4B2064630B90A4B0B49C3
:1039F0000B484FF4F47206F0B9FF0134ED09A4B29C
:103A0000FBD130887388C01A80B2C0F580708442C0
:103A1000CCBF0020012070BD6DBE0008E8BE0008CC
:103A200005BC0008F8B50E46074630B9104B1149E1
:103A3000114840F2211206F099FF00243B68254608
:103A400073B91E2C06DD0A4B0C490B4840F22912B3
:103A500006F08CFFC4F11E04F4813DB93E60F8BD50
:103A6000DA8914441D4624B21B68E9E72E60F8BDCC
:103A70006DBE00082DBC000805BC00084FBC000846
:103A800038B50D46044630B90F4B1049104840F286
:103A9000491206F06BFF2068002200B938BD838907
:103AA000AB42036804D002461846F6E7136002E012
:103AB000002AFBD1236003681BB1DA89C1890A445B
:103AC000DA810023036038BD6DBE000875C00008B0
:103AD00005BC0008F8B5B1F8604006460F46002C5A
:103AE00045D043880588D9B2ED1AADB2C1F58073CF
:103AF000AB42A8BF2B46002B39D09BB2A34234D295
:103B00009D4294BF002501251C46002D01F10401B2
:103B100014BF0323012322463144384604F0C2FE79
:103B200028BBD5B173881C44A3B234887380D9B242
:103B3000E41AB7F86030A4B29C42A8BF1C46C1F595
:103B400080739C42A8BF1C46A4B2043101232246C4
:103B50003144384604F0A6FE48B973881C4474808A
:103B60003846BDE8F84005F023BA0025CDE7F8BD9A
:103B700008B5837A032B02D1EC30FFF7ABFF0020AE
:103B800008BD000070B504460E461546DAB9A266B7
:103B90000E49304602F056FF0D49304602F068FFEC
:103BA00002220C49304602F091FF02230A49A37217
:103BB00041F28830224605F0C9FC2046E16820F831
:103BC000EC5BFFF787FF284670BD00BFD13F0008C0
:103BD000913C0008713B0008113D000870B50E468D
:103BE000044630B9194B1A491A484FF4FE7206F0D0
:103BF000BDFEE06898B1002102F024FF0021E068DA
:103C000002F04CFFE068002102F032FFE06803F0B0
:103C10004BFA10B1E06803F059FB0023E360A5699B
:103C20007DB9A56121460C4805F042FDA37A63B138
:103C30006369A5724BB1324621692046BDE87040E8
:103C400018472B682D601D46EAE770BD6DBE000861
:103C500052BE000805BC0008113D000810B504461E
:103C600030B9084B0849094840F2AE3206F07EFEF2
:103C70000023E36020464FF48071BDE81040FFF759
:103C8000ADBF00BF6DBE000895C0000805BC0008B0
:103C900070B5837A032B04460FD100230380838001
:103CA00000F1180600213046FFF7EAFE054630B95C
:103CB000E16804F1EC00FFF70DFF002070BD6B68B8
:103CC00013B10021A86898472D60EBE770B552004A
:103CD0000688BDF8105002F00602741C42EA011278
:103CE00050FA86F603F001031A43A4B232717F2D15
:103CF00005F07F038CBF6FF07F010021621C50FA3A
:103D000084F40B43ED09237194B2F0D1048070BDAB
:103D1000F7B5044630B9374B3749384840F22522C9
:103D200006F024FEA37A022B18D1238801339BB21C
:103D3000238003EB8303632B08DC3149224641F2E5
:103D4000883003B0BDE8F04005F000BC40F201113E
:103D5000204603B0BDE8F040FFF740BF032B3FD142
:103D6000A56905268DB1EB89B2B29A423AD3F61A0B
:103D70002B68A3616B68F6B21BB16FF00201A868F3
:103D800098472D60A569002EECD16288002AD4D016
:103D9000A38801339BB2A38002EB520203EB83039F
:103DA000934222DD40F201112046FFF717FF002663
:103DB0002388628803EB8301914218DB04F1EC074E
:103DC00000213846FFF70CFE40B1002500952B4638
:103DD0002A460C213846FFF779FF2580002EACD10A
:103DE00003B0F0BD9E1AEE81CFE70126E0E7013374
:103DF0002380F3E76DBE0008C6BE000805BC0008BE
:103E0000113D00082DE9F34100F1EC0405460F4691
:103E10002046022116469846FFF7E2FD98B102239C
:103E200042460093394600232046FFF74FFF3146B4
:103E30002046FFF78BFD2046E968FFF74BFE002088
:103E400002B0BDE8F0814FF0FF30F9E72DE9F74F00
:103E500090F86CA04FEA1A161C46022E00F16C0373
:103E60000546904603EB010914D1837A022B01D059
:103E700000240BE099F8014044B90323837243699D
:103E80000480002BF4D0224601699847204603B0F5
:103E9000BDE8F08F0D2EEBD0032E5ED1826E802A0E
:103EA000CAF3410A57D85B5C99F8017007EB032706
:103EB000BFB2BAF1000F07F1020614BF02230123BB
:103EC000B6B23344434502DD4FF48074DEE7BAF105
:103ED000000F3DD019F806204E4473783E1D03EBC9
:103EE00002230381B6B209F1020BA8EB06081BF806
:103EF0000730019300230BF807306B6E1FFA88F828
:103F000023B108EB04025946E86D98479DF8043048
:103F10000BF80730B8F1000F01D1002CA8D1B4FA8A
:103F200084F32F6EE86D5B09424609EB0601B84742
:103F3000002C9DD1BAF1000F9AD0BAF1010F23469F
:103F40002A890CBF042105212846FFF75BFF9DE766
:103F5000A0F808A0C7E70026DCE7595C99F8012023
:103F600052EA0122B0D0052E04D101230621FFF729
:103F700049FF7DE7062E02D100230721F7E70B2E2C
:103F80009DBF4FF42963F340DB43012313F0010489
:103F90009AD111461830FFF773FD054600283FF40B
:103FA00067AF092E0FD1B8F1020F8DD9436899F888
:103FB000022033B1032A2CBF6FF00C010021A86846
:103FC00098472D6054E74368002BFAD02146F6E766
:103FD0002DE9F04F0D4685B091469A46044630B91A
:103FE0005A4B5B495B4840F25F3206F0BFFCE36826
:103FF000AB4206D0554B584956484FF4587206F01C
:10400000B5FCB9F1000F09D14FF480712046FFF7DC
:10401000E5FDCA46504605B0BDE8F08FBAF1000F85
:1040200003D0484602F0E6F8F4E72846B9F808104D
:1040300002F0AEFC04F16C03D34656465546D0461A
:104040000393B9F80870B8450ED30027484602F02C
:10405000D1F81FB139462046FFF7C0FD6388002B19
:10406000D8D00023A380D5E7012EA26E02D91BF081
:10407000800F31D096421BD2A31993F86CB0013651
:10408000F6B2012EDDD9B21E0BF07F03C2EBC202E5
:1040900093401BF0800F45EA0305D2D1C5B92B46EA
:1040A0002A4631462046FFF7D1FEA5662E46C8E7D0
:1040B0004146484602F095FBA36E08F101075A1CE1
:1040C0002344BFB2A266834683F86C00B846D6E7A5
:1040D000A36EF31A1D44B4E7C6F18001921BB2FB34
:1040E000F1F301FB132293B29919A7EB0807BFB2B2
:1040F00089B2BD420193C1F1800398BFAFB29BB2B8
:104100009F420398029328BF1F46014443463A4604
:10411000484602F00DFBA36EB8443B44ED1BA3667A
:104120001FFA88F802D0029BBB428AD1019B3B4414
:104130001A4692B22B4631462046FFF787FE0746C5
:10414000002883D1002D7FF47CAFAEE76DBE000860
:10415000B5C0000805BC0008D6C000082DE9F04F26
:1041600085B08B46924602939DF83890054630B94B
:104170004C4B4D494D4840F20B4206F0F7FBBBF16A
:10418000000F06D1474B4A49484840F20C4206F01E
:10419000EDFBAB7A5BB9434B4649444840F20D42D4
:1041A00006F0E4FB6FF00A0005B0BDE8F08F58465A
:1041B000FCF718F84FF6FD73984209D9394B3E4980
:1041C0004FF48262394806F0D1FB6FF00F00EBE745
:1041D00083B20393029B841C1C44B4F5803F04DB30
:1041E000304B364940F21342ECE7A4B2B9F1000F6C
:1041F0001ED0EE880136B6B2002E04F1020408BFCC
:104200000126A4B2EE80119B109A314605F11C00E4
:10421000FFF7C4FB804640B105F1EC072146384664
:10422000FFF7DEFB30B9C8F800804FF0FF30BBE786
:104230004E46E8E74A460321384600949DF83C3054
:10424000FFF744FD039A59463846FFF78CFBB9F156
:10425000000F03D031463846FFF778FBBAF1000F64
:104260000AD1414605F11800FFF7DCFB3846E96842
:10427000FFF730FC002097E7029B002BF1D052465D
:10428000A2EB0A0302999BB28B42EAD2B5F8EC305A
:10429000591CA5F8EC1055FA83F312F8011B83F8AA
:1042A000F010EDE76DBE00080CBF000805BC00086B
:1042B00029BF000845BF000864BF000888BF000888
:1042C0002DE9F04F85B08B4691461F469DF83CA0E6
:1042D000044630B9484B4949494840F2554206F036
:1042E00045FBBBF1000F06D1434B4649444840F221
:1042F000564206F03BFB5846FBF774FF4FF6FD7342
:1043000098420BD93C4B404940F259423C4806F098
:104310002DFB6FF00F0005B0BDE8F08F051DBAF161
:10432000000F18BF013583B2B5F5803F039304DB5E
:10433000314B364940F25D42E8E7B9F1020FADB2C8
:1043400006D92D4B32492E484FF48C6206F00EFBF5
:10435000A37A002B4CD0E6880E9B0136B6B2002E15
:1043600008BF0126E6803A46314604F11C00FFF7FB
:1043700015FB804640B104F1EC0729463846FFF7AB
:104380002FFB20B9C8F800804FF0FF30C3E7BAF127
:10439000000F14BF08210A2101220023384600958E
:1043A000FFF794FC31463846FFF7D0FA039A594696
:1043B0003846FFF7D8FABAF1000F0ED0B4F8EC3057
:1043C000B9F1020F03F1010254FA83F328BF4FF051
:1043D0000209A4F8EC2083F8F090414604F118009B
:1043E000FFF720FB3846E168FFF774FB002092E7F7
:1043F0006FF00A008FE700BF6DBE0008D4BF000851
:1044000005BC0008F3BF000811C0000837C0000851
:104410005DC00008F8B50E4617461D46044630B983
:10442000054B0649064840F28F4206F09FFA276680
:104430006666E565F8BD00BF6DBE0008ACBF00084C
:1044400005BC000810B54FF4F87001F063FC044699
:1044500020B14FF4F872002106F080FA204610BD1A
:104460002DE9F04F87B01E4604910592119F044636
:1044700030B97D4B7D497E4840F2BB4206F076FA6A
:10448000049B33B9784B7B49794840F2BC4206F033
:104490006DFA37B9744B7849754840F2BD4206F061
:1044A00065FA3B6833B9704B7449714840F2BE42BB
:1044B00006F05CFAA57A002D40F0D2804FF4F87235
:1044C0002946204606F04AFA109B2361BB89638087
:1044D00004F11C03E36104F12C03E36238696661B3
:1044E00004F13C03E36304F14C03E364002843D08C
:1044F000D7F81480B8F1000F3ED03D7E7B7EED00F2
:1045000005F0180545F004050BB145F02005FBF753
:1045100069FEFF2806460CD9534B594940F2D44254
:10452000534806F023FA6FF00506304607B0BDE8A1
:10453000F08F20B94C4B534940F2D542F0E75FFA77
:1045400080FA4046FBF74EFEFF2804D9464B4E4901
:104550004FF49B62E4E70E3606445FFA80F9B6B288
:104560003868FBF73FFEB0F5803F834608D33E4BEB
:10457000464940F2E342D3E7A946AA460A26EFE7B6
:1045800002360644B6F5803F04DB374B404940F223
:10459000E642C5E7B3B204F1EC081946404603937E
:1045A000FFF71EFA10B94FF0FF36BEE702F058FFD2
:1045B000E0600028F7D0214602F040FA0022354999
:1045C000E06802F06FF90646002843D1324B059AA5
:1045D0000499E06802F064FF064600283AD1E068DA
:1045E0002E4902F05BFA0121039BA172324600932F
:1045F00040463346FFF76AFB042229494046FFF74D
:10460000B2F9B4F8EC3054FA83F2042182F8F010D5
:104610009A1C0133A4F8EC2054FA83F445F0020309
:1046200084F8F030B9894046FFF790F91FFA8BF211
:1046300039684046FFF797F96B077FF576AF52462A
:1046400039694046FFF78FF94A4679694046FFF7D6
:104650008AF96AE7E06802F039FE0023E36064E764
:104660006FF0090661E700BF6DBE000884BC00085A
:1046700005BC0008A8BC0008CDBC0008F6BC0008BA
:104680002ABD000867BD0008A7BD0008E2BD0008FC
:104690001EBE0008E0C30008853B00085D3C000822
:1046A0004DBE000840BA80B2704700BA704708B5E6
:1046B00005F0ECF901F0B6F901F018FC01F063FC2B
:1046C00005F06CF802F0ECF8BDE8084004F0C6BF55
:1046D00070B51826074C46430546A05918B101F09D
:1046E00089FD0023A351182303FB054400232375F0
:1046F00070BD00BFEC5100202DE9F3470B9D8946AA
:1047000092469846074630B92C4B2D492D484FF418
:104710008B6206F02BF900221C21022001F0D4FD4F
:104720000646002847D043891B2B06D8234B264931
:10473000244840F2644206F019F9BDF83400746868
:10474000FFF7B0FFE08097F82430062B06D01B4B14
:104750001E491C4840F26B4206F008F9D8F80030B8
:10476000A360B8F80430A3812B68C4F81230AB887A
:10477000E3820A9B1B68C4F80E300C9B1B68A36184
:10478000012363700823A3700623237104230025EB
:10479000637140F606032570E5704A460093314682
:1047A0005346384605F0F6F8304601F023FD28461A
:1047B00002B0BDE8F0874FF0FF30F9E7F1C1000823
:1047C00028C2000805BC000836C2000867C20008FD
:1047D0002DE9F74F3E4B01910A22054600209446F1
:1047E000144681468046834696461E46BEF10A0F11
:1047F0001F7D12D19FB94FFA80FE01300A2803F1C4
:104800001803F3D1019B990704D4BEF10A0F1CD100
:10481000DB0735D44FF0FF3009E0002FEDD0002D3D
:104820004AD029688A4659688A4545D140B203B0C2
:10483000BDE8F08FC245E0D34FFA80FCD046DCE7FC
:10484000CA4524BF44B2D146D7E75FFA8EF7182392
:1048500003FB07631B7D33B11E4B1F491F4840F20A
:10486000871206F083F825B1182303FB07632A6833
:104870005A60182303FB07660023738278B2D6E7D9
:104880000A2C0FD01823E7B25C43335933B1114BD4
:104890001349124840F26F1206F068F83846FFF7E5
:1048A00017FFD4E7BCF10A0F02D05FFA8CF7F5E7E7
:1048B0000A2AAFD0D7B2F1E7012FB3F812A0BFD1C7
:1048C0001F68002FB6D0DA4597D342B2D34694E79B
:1048D000EC510020F1C1000813C1000805BC00081C
:1048E000FCC0000870B5084D064600242B7D2BB196
:1048F000AB68B34202D12046FFF7EAFE01340A2C2E
:1049000005F11805F2D170BDEC5100202DE9F047FA
:10491000804686B00C4649B9464B474947484FF454
:10492000227206F023F806B0BDE8F08745682B88B0
:10493000B3F5807F08D12B79062B05D16B79042B39
:1049400002D16B88082B03D0404601F053FCEAE704
:104950004E68D5F80E300593AB6916B19B1B5E42CD
:104960005E4194F82430002E14BF4FF001094FF03F
:104970000209062B05F1080706D02E4B30492F48B7
:1049800040F2AB1205F0F2FF059800283CD021461A
:1049900000F095FC8246B8BB059B03F0F003E02BCA
:1049A00032D0494605A8FFF713FF00282CDB254B22
:1049B000182202FB00F103EB010E4FF0020C8EF8FF
:1049C00014C04FF00C0CCEF8084012FB00C238683F
:1049D000985003EB020CBA88ACF8042053F801900D
:1049E000AEF812A0B9F1000F0ED043F801A04FF4B9
:1049F0000063009304F125023B464946204604F03B
:104A0000C9FF484601F0F6FBEB88B3F5807F9BD1E8
:104A1000002E99D00222039205AA04F125030292E6
:104A2000221D009201973A4619462046FFF764FE80
:104A30008AE700BFF1C1000828C2000805BC0008D1
:104A40005BC10008EC5100201FB5024600F12503B0
:104A50000291012405490191043200920394044A11
:104A60001946FFF749FE04B010BD00BF00D800088A
:104A700094D70008F8B5134C002502260427227CA1
:104A80006AB1E38901339BB2B3F5967FE38103D228
:104A9000012A0AD1042B0CD92846FFF719FE01354B
:104AA0000A2D04F11804EAD1F8BD032A06D12774AF
:104AB000F5E721466068FFF7C7FFF0E7042AEED16B
:104AC0002674ECE7F05100202DE9F043274D144601
:104AD000182202FB045285B0127D012A0646884640
:104AE00006D8234B2349244840F2ED2205F03EFF2F
:104AF000182101FB045906F1250799F81430022BFF
:104B00000DD1B9F81230B3F58E7F17D9494604316B
:104B10003046FFF799FF10B9032389F814301823A2
:104B200003FB04534FF4006200920C333A464146B3
:104B3000304604F02FFF05B0BDE8F083B3F5877F62
:104B4000EDD304EB4403DB0003F10C0204332B44EC
:104B500002930A4B01930121331D039100932A44D0
:104B60003B4639463046FFF7C7FDD4E7EC510020FD
:104B7000F1C100087FC1000805BC000800D800088A
:104B80002DE9F347894680460146D9F800001646CC
:104B900000F095FB044600285ED1D9F8003003F000
:104BA000F002E02A58D0002B56D001214846FFF7EA
:104BB0000FFE051E53DB404F182303FB05731A7DC0
:104BC0001AB901241C75C3F80880182303FB057368
:104BD0001B7D33B9394B3A493A4840F2C93205F0A6
:104BE000C5FE0CB9002E3CD149464046FFF72CFFCC
:104BF000002E38D102B0BDE8F087FBD1DFF8BC80D1
:104C0000DFF8C890DFF8BCA034469CB9304601F00C
:104C1000AFFC002E4CD0B046182303FB05F21C4617
:104C2000B85808B101F0E6FA04FB05F3002047F894
:104C30000380DFE7628923899A4208D1236833B170
:104C400043464FF47B724946504605F08FFE237B66
:104C5000012B1ED12468D8E76FF00F00CAE7284661
:104C6000C8E74FF0FF30182303FB0572127D012ABD
:104C7000C3D9154A15700C2213FB05234FF40062AB
:104C800000923B4408F125023146404604F082FE82
:104C9000B0E700222189022001F016FB804638B1DE
:104CA000314601F0BBFC0028B6D0404601F0A2FA24
:104CB0004FF0FF309EE700BFEC510020F1C100082B
:104CC000AFC1000805BC0008DC520020D7C10008B5
:104CD000F0B50E4685B01546044630B93E4B3F4907
:104CE0003F4840F21B3205F041FE36B93A4B3D4990
:104CF0003B484FF4477205F039FE35B9364B3A4917
:104D0000374840F21D3205F031FE2146286800F098
:104D1000D6FA00285BD12B6803F0F002E02A1DD1FF
:104D200001238DF808305E238DF80A306B788DF8FA
:104D3000090003F07F038DF80B30AB788DF80C3051
:104D4000EB788DF80D3002AB4FF4006200923146E3
:104D500004F12502204604F01DFE1FE06268A168F0
:104D60005A400A4208D09BB24FF6A962934203D040
:104D7000E36873B304F10C051C4B1D491A78182025
:104D800000FB0210017D0129194609D92F684368EB
:104D90009F4205D131462046FFF796FE05B0F0BD93
:104DA000134B0022187D012806D92F6858688742C6
:104DB00002D1D2B20A70EDE701320A2A03F11803D8
:104DC000F0D1324629462046FFF7DAFEE6E7094BE6
:104DD000BAE76FF00300E1E7F1C1000828C200085C
:104DE00005BC000833CC00083CC10008DC520020A0
:104DF000EC51002094D70008F0B5044687B00F4668
:104E0000164624210022012001F05EFA0546A0B3D7
:104E10004389232B06D81A4B1A491B484FF4B17209
:104E200005F0A4FD22686C68002323716371A371EF
:104E3000E37127706670134604F1080102F11C004B
:104E400053F8046B41F8046B8342F9D106AED36882
:104E500046F8043D304600F0BBF858B1002101236C
:104E6000A170E170324602908DE80A002846FF23C7
:104E700000F014FA284601F0BDF907B0F0BD00BFFC
:104E80000FC3000844C3000805BC00082DE9F04327
:104E9000444BD3F8089099F8005005F00F05AD0089
:104EA000132D85B0044688461F462AD94289032A15
:104EB00027D942681278082A23D1586900F0F002F5
:104EC000E02A1ED0196800F0FAF90646C8B923890D
:104ED000072B16D905F10E01204601F085F90028AF
:104EE0004FD021892944324689B2022001F0ECF9E1
:104EF000064630B1428905F108039A4207D201F013
:104F000079F9204605B0BDE8F04301F073B9494690
:104F10002A46406805F017FD6942304601F064F901
:104F200038B1214B21492248AF2205F01FFD304600
:104F3000E5E72146304601F071FB0028F7D1204615
:104F400001F058F9344629462046666801F04CF9CC
:104F500002460028D5D161687B69CB603B690B6153
:104F6000FF233070B070F0700B728872C87201212C
:104F700001910090CDF808800E49204600F08EF98E
:104F8000BFE7C5F57F41F23109B2204601F02CF9A7
:104F90000028D8D0044B08490548C02205F0E6FC9B
:104FA000AFE700BFEC5500200FC30008A8C20008FF
:104FB00005BC000800560020DDC200080A46043087
:104FC0000321FFF719BF0A4604300B21FFF714BF76
:104FD00030B5134B1B686BB9124A1268EAB192F8EC
:104FE0002B1001F00501052917D15168002918BFC0
:104FF000134612E093F82B4004F00502052AE9D18C
:105000005A68002AE6D001689D684A402A4204D0C6
:10501000A207DFD4DA689142DCD1184630BD00BF68
:1050200018D900201CD900202DE9F84F476897F8BF
:1050300000904FEA1913042B0546884605D02846F0
:1050400001F0D8F80020BDE8F88F7888FFF72AFB38
:105050002B8909F00F0983424FEA8909044603D9D5
:105060000146284601F00CFA6B894B45E7D32B89A2
:10507000A342E4D3B9F1130FE1D93B69494C636111
:1050800003F0F003FA682261E02B39D198F82B3055
:10509000DA0703D5D8F80430002B58D10026414652
:1050A000206900F00CF90028C9D1236903F0F0034E
:1050B000E02BC4D0002EC2D0FB8823F0C00333B154
:1050C000284600F02BFA05460028BBD04768A760A9
:1050D00084E840013B7803F00F039B00C9F1000115
:1050E0002846A38101F080F87B7A062B3DD0112B56
:1050F0002FD0012B3ED141462846FFF7C7FE2CE0BA
:10510000DFF8A4B046464FF0010A96F82B30DB07D3
:1051100004D4BAF1000F0DD1366810E07368002B8B
:10512000F7D060698342BAD0314600F0C8F8002851
:10513000EFD0B4E7237D7F2BB0D0DBF8006046458D
:1051400008BF36684FF0000A002EDED1A6E74646BB
:10515000A5E74146284604F023FB00232360636053
:10516000A360A381236163616CE74146284602F096
:10517000B7FDF2E73146606900F0A1F868B96369EC
:1051800003F0F003E02B08D04946284601F02FF841
:105190006F6002212846FFF711FF284601F02AF828
:1051A000DBE700BFEC55002018D900202DE9F347BC
:1051B0001F46C389DDF83080012B05468A46164616
:1051C00006D0304B3049314840F2333205F0CEFB47
:1051D000002E47D01421284601F006F800284ED1B1
:1051E0006B896C68132B06D8264B2949274840F257
:1051F000613205F0BBFB9DF82C3027726372336877
:105200002361452323709DF8283063702889DFF8D7
:105210008890FFF747FA00276080A771E771B9F817
:105220000000FFF73FFAB9F80030A0800133A9F879
:105230000030BAF1000F12D1164B1B68E360A77261
:10524000E772B8F822309BB12A899A4210D93246C7
:105250004146284600F00CFB02B0BDE8F087DAF8C2
:105260000030EBE76B6802AE1B6946F8043DE8E7E7
:10527000D8F814303246294640469847ECE76FF09C
:105280000100E9E770C30008A4C3000805BC0008DA
:10529000B0C30008E0C30008DE520020F0B4069C52
:1052A0009DF810509DF814601AB109B10F6807B944
:1052B000211D069405960495F0BCFFF777BF431EA9
:1052C000033311D891F82B3013F002030ED04A6843
:1052D00090420BD08B6842401A4207D1DB43834394
:1052E0000CBF01200020704701207047002070474C
:1052F00038B50C4B1A68824204460D4607D1026845
:105300001A6021460420BDE8384000F019BE31B9CA
:10531000054B0649064840F2451205F027FB236875
:105320002B60EEE7E4520020C9C4000802C5000863
:1053300005BC000881422DE9F84F05460F4605D10E
:105340002F4B30493048AB2205F010FB47B13B688A
:105350009D4205D02A4B2D492B48AD2205F006FB76
:105360006E6873689A8892BB1A686A6005F11C01BE
:1053700005F1080252F8040B43F8040B8A42F9D1F4
:1053800001213046FFF71FFE304601F0E9F80446E0
:10539000304600F02FFF6E68DFF86480DFF8789009
:1053A000DFF864A0AEB92846194D3946FFF7A0FFD3
:1053B0002B88A34205D2124B16491348D22205F07E
:1053C000D5FA2B881B1B2B802046BDE8F88F0024C4
:1053D000E1E773683046D3F800B001F0C1F8044447
:1053E000B4F5803F05DB4346CC224946504605F0E4
:1053F000BDFA3046A4B200F0FDFE5E46D2E700BF23
:10540000C9C400081BC5000805BC000827C5000862
:10541000E052002056C5000839C500082DE9F041CA
:10542000DFF86C8006460F4600250024D8F80030CF
:105430002146A646204653B910B1FFF77BFF05442D
:10544000BD4201DA012CF0DC2846BDE8F081D6F837
:105450000CC05A69624509D1D6F810C09A696245F4
:1054600004D1B3F80CC0B288944508D0013460B1BF
:10547000C27F93F81FC094459CBF714618461A68B6
:10548000002A18BF9E461346D5E771461846F6E730
:10549000E452002010B5044630B9064B06490748CF
:1054A00040F2AE2205F062FA21460520BDE8104028
:1054B00000F046BDC9C40008EFCB000805BC0008D9
:1054C00010B5044630B9084B084909484FF42E720C
:1054D00005F04CFA606908B100F08CFE2046BDE88A
:1054E0001040FFF7D7BF00BFC9C4000871C500084E
:1054F00005BC000838B5084B1868002400B938BD51
:10550000C37F056823B1013BC37704462846F5E70E
:105510002146FFF70FFFF9E7E45200202DE9F74F8E
:1055200045682B7803F00F03052B074640F08C806D
:10553000E888B44CFFF7B6F8C0F30C004FEAC00996
:105540006888FFF7AFF82B7803F00F03A0EB830018
:1055500083B23846019301F003F8238803440A2BF1
:10556000824668DCA84E3468002C72D1042000F01A
:10557000CBFC044658B951462846FFF74FFF8245F9
:1055800062DC042000F0C0FC044600285CD020222D
:105590000021204605F0E2F90323E3773368236016
:1055A00034602B4604F1080205F1140153F8040B92
:1055B00042F8040B8B42F9D1B5F806B01BF0200B72
:1055C00008D1019B4B449BB299453DD84FF6EB72F5
:1055D000934239D87D686888FFF764F895F80080B1
:1055E00008F00F08A0EB8808E888FFF75BF8C0F325
:1055F0000C001FFA88F8C0007E68D4F804E0B08080
:1056000008EB000300259BB235707570B570F5701E
:10561000F38072464FF0010852BB002D40F092809B
:10562000BEF1000F7DD0794B79497A484FF4DA7298
:1056300005F09CF975E001462846FFF7EFFE18B12A
:10564000238853440A2B8DDD384600F0D3FD002516
:10565000D4E0EB6862699A4208D12B69A2699A4248
:1056600004D1A289AB889A4200F0DC8024687BE7F1
:10567000D2F804C0BCF80410884254D23260002D25
:105680004DD0EA889042C0F091808B4200F28E802B
:105690002F60904240F0E480BBF1000F04D0A37F64
:1056A00013F0010300F0DA80B8F1000F59D14FF088
:1056B0000008544E33889A44A6F800A0BBF1000FAE
:1056C00007D1019B9944A37FA4F81C9043F00103E8
:1056D000A377B8F1010FBAD1A38B1433A383636806
:1056E0005D682F6804F108032A4604F11C0153F891
:1056F000040B42F8040B8B42F9D1A08BFEF7D2FFCA
:1057000000236880AB71EB71AB72EB726568002FA0
:1057100057D13D4B19688C4265D1394665E08B42C3
:1057200044D86760B8E741D0BCF8062082423DD833
:1057300025B1EA888A4218BF4FF00008DCF8002043
:10574000654669E7EB88834206D9304B32493148D8
:1057500040F2AB1205F00AF92F60EA88B3889A424A
:1057600098E76368002BA2D059688B88002B9ED1E4
:1057700033689BB9B14206D1244B284925484FF4E0
:10578000EB7205F0F3F83368002B92D01F4B2449DD
:1057900020484FF4EC7205F0E9F88AE75A68F0887F
:1057A0009388984283D113681646E2E7384600F0A2
:1057B000D7FE144A1388181A1080384600F01AFDD4
:1057C00042E7D7F804806FF01301384600F00CFD73
:1057D0003946284600F0E8FED8F8007097E70B68D5
:1057E0009C4202D019460029F9D12046FFF780FDDE
:1057F000284600F0B5FE3388181A3080284603B0DA
:10580000BDE8F08FE0520020E4520020C9C4000837
:1058100063C4000805BC000845C400089AC4000819
:10582000A7C40008E888FEF73DFFC0F30C0000287D
:105830007FF4C2AEE089FEF735FFC0F30C0000280C
:105840003FF4BAAE2B4604F1080205F1140153F8F7
:10585000040B42F8040B8B42F9D1ADE6984628E7D9
:10586000BBF1000F3FF423AF4FF0000817E700BF74
:105870002DE9F04FB1F822808BB00823A8F114086D
:1058800098FBF3F81FFA88F30693436808921E7892
:10589000029306F00F06B600142E07468B460BD077
:1058A0005A4B5B4940F2E1225A4805F05FF86FF02D
:1058B00005000BB0BDE8F08F029BD888FEF7F2FE22
:1058C000C0F30C0310F40054049304D04F4B52491E
:1058D00040F2E622E8E73D891FFA88F8143D4FEAD6
:1058E000C803ADB207930DB92846E2E7079BAB4268
:1058F000A8BF2B469BB2002214210220059300F082
:10590000E3FC804670B37B89132B06D83F4B434999
:10591000404840F2093205F029F8029BD8F80420EB
:105920001946143153F8040B42F8040B8B42F9D199
:10593000D8F80430DDF814900393B9F1000F37D094
:105940007C89A41BA4B24C4528BF4C4614B93F68BF
:105950000026F2E7052000F0D7FA824628B9404633
:1059600000F048FC4FF0FF30A3E701947B6833441C
:105970000093022203462146042000F0FDFB18B9E3
:105980005046FFF787FDEAE70990384600F0F0FD42
:10599000A9EB0409224BCAF81470CAF8103009990F
:1059A00040461FFA89F900F0FFFDB9F1000FCED192
:1059B000049BC3F30C00BBF82230133B9D42A8BFED
:1059C00040F40050FEF76EFE039BD880059B03F168
:1059D000140080B2FEF766FE039B039A58800023F2
:1059E0009372D3724146DBF81430089A58469847B0
:1059F000404600F0FFFB059B069AED1A049B1344FA
:105A000026449BB2B6B2ADB204936CE7C9C4000899
:105A1000E4C3000805BC00080BC4000825C4000846
:105A2000C1540008114B124A124823F0030310B569
:105A30004FF42051136000225A801A715A180260E4
:105A4000012019801071118051800B4A0B4813609E
:105A500004F028F840B10A4B0A490B484FF4CC72C5
:105A6000BDE8104004F082BF10BD00BF0756002003
:105A7000F0520020F4520020E8520020EC520020A6
:105A80003FC600086EC6000805BC00082DE9F041BD
:105A90000446002800F09680830706D04A4B4B4905
:105AA0004B484FF4D67204F061FF4A4F3B689C426A
:105AB00003D3494B1B689C4206D3434B4749444898
:105AC00040F2AF1204F052FF3B689C4204D3424BB9
:105AD0001A689442984605D304F012F8BDE8F041E4
